{
	"data": {
		"bytecode": {
			"linkReferences": {},
			"object": "608060405260045f556005600155348015610018575f80fd5b50610250806100265f395ff3fe608060405234801561000f575f80fd5b5060043610610086575f3560e01c806393daa3671161005957806393daa367146100ee578063980a67fd1461010c578063c503133114610116578063c82fdf361461013457610086565b80633c6bb4361461008a57806346d46df2146100a857806371ca2ecf146100c6578063856b16a4146100d0575b5f80fd5b610092610152565b60405161009f919061019d565b60405180910390f35b6100b0610157565b6040516100bd91906101d0565b60405180910390f35b6100ce61015b565b005b6100d861015d565b6040516100e59190610201565b60405180910390f35b6100f6610161565b60405161010391906101d0565b60405180910390f35b610114610165565b005b61011e610167565b60405161012b91906101d0565b60405180910390f35b61013c61017f565b604051610149919061019d565b60405180910390f35b5f5481565b5f90565b565b5f90565b5f90565b565b5f60045f5414610177575f61017a565b60015b905090565b60015481565b5f819050919050565b61019781610185565b82525050565b5f6020820190506101b05f83018461018e565b92915050565b5f8115159050919050565b6101ca816101b6565b82525050565b5f6020820190506101e35f8301846101c1565b92915050565b5f819050919050565b6101fb816101e9565b82525050565b5f6020820190506102145f8301846101f2565b9291505056fea26469706673582212204eba7c9a6548fe4ba272e0c1d8cc8bd4218d715174741ebc7e7a8fd4299c668064736f6c63430008180033",
			"opcodes": "PUSH1 0x80 PUSH1 0x40 MSTORE PUSH1 0x4 PUSH0 SSTORE PUSH1 0x5 PUSH1 0x1 SSTORE CALLVALUE DUP1 ISZERO PUSH2 0x18 JUMPI PUSH0 DUP1 REVERT JUMPDEST POP PUSH2 0x250 DUP1 PUSH2 0x26 PUSH0 CODECOPY PUSH0 RETURN INVALID PUSH1 0x80 PUSH1 0x40 MSTORE CALLVALUE DUP1 ISZERO PUSH2 0xF JUMPI PUSH0 DUP1 REVERT JUMPDEST POP PUSH1 0x4 CALLDATASIZE LT PUSH2 0x86 JUMPI PUSH0 CALLDATALOAD PUSH1 0xE0 SHR DUP1 PUSH4 0x93DAA367 GT PUSH2 0x59 JUMPI DUP1 PUSH4 0x93DAA367 EQ PUSH2 0xEE JUMPI DUP1 PUSH4 0x980A67FD EQ PUSH2 0x10C JUMPI DUP1 PUSH4 0xC5031331 EQ PUSH2 0x116 JUMPI DUP1 PUSH4 0xC82FDF36 EQ PUSH2 0x134 JUMPI PUSH2 0x86 JUMP JUMPDEST DUP1 PUSH4 0x3C6BB436 EQ PUSH2 0x8A JUMPI DUP1 PUSH4 0x46D46DF2 EQ PUSH2 0xA8 JUMPI DUP1 PUSH4 0x71CA2ECF EQ PUSH2 0xC6 JUMPI DUP1 PUSH4 0x856B16A4 EQ PUSH2 0xD0 JUMPI JUMPDEST PUSH0 DUP1 REVERT JUMPDEST PUSH2 0x92 PUSH2 0x152 JUMP JUMPDEST PUSH1 0x40 MLOAD PUSH2 0x9F SWAP2 SWAP1 PUSH2 0x19D JUMP JUMPDEST PUSH1 0x40 MLOAD DUP1 SWAP2 SUB SWAP1 RETURN JUMPDEST PUSH2 0xB0 PUSH2 0x157 JUMP JUMPDEST PUSH1 0x40 MLOAD PUSH2 0xBD SWAP2 SWAP1 PUSH2 0x1D0 JUMP JUMPDEST PUSH1 0x40 MLOAD DUP1 SWAP2 SUB SWAP1 RETURN JUMPDEST PUSH2 0xCE PUSH2 0x15B JUMP JUMPDEST STOP JUMPDEST PUSH2 0xD8 PUSH2 0x15D JUMP JUMPDEST PUSH1 0x40 MLOAD PUSH2 0xE5 SWAP2 SWAP1 PUSH2 0x201 JUMP JUMPDEST PUSH1 0x40 MLOAD DUP1 SWAP2 SUB SWAP1 RETURN JUMPDEST PUSH2 0xF6 PUSH2 0x161 JUMP JUMPDEST PUSH1 0x40 MLOAD PUSH2 0x103 SWAP2 SWAP1 PUSH2 0x1D0 JUMP JUMPDEST PUSH1 0x40 MLOAD DUP1 SWAP2 SUB SWAP1 RETURN JUMPDEST PUSH2 0x114 PUSH2 0x165 JUMP JUMPDEST STOP JUMPDEST PUSH2 0x11E PUSH2 0x167 JUMP JUMPDEST PUSH1 0x40 MLOAD PUSH2 0x12B SWAP2 SWAP1 PUSH2 0x1D0 JUMP JUMPDEST PUSH1 0x40 MLOAD DUP1 SWAP2 SUB SWAP1 RETURN JUMPDEST PUSH2 0x13C PUSH2 0x17F JUMP JUMPDEST PUSH1 0x40 MLOAD PUSH2 0x149 SWAP2 SWAP1 PUSH2 0x19D JUMP JUMPDEST PUSH1 0x40 MLOAD DUP1 SWAP2 SUB SWAP1 RETURN JUMPDEST PUSH0 SLOAD DUP2 JUMP JUMPDEST PUSH0 SWAP1 JUMP JUMPDEST JUMP JUMPDEST PUSH0 SWAP1 JUMP JUMPDEST PUSH0 SWAP1 JUMP JUMPDEST JUMP JUMPDEST PUSH0 PUSH1 0x4 PUSH0 SLOAD EQ PUSH2 0x177 JUMPI PUSH0 PUSH2 0x17A JUMP JUMPDEST PUSH1 0x1 JUMPDEST SWAP1 POP SWAP1 JUMP JUMPDEST PUSH1 0x1 SLOAD DUP2 JUMP JUMPDEST PUSH0 DUP2 SWAP1 POP SWAP2 SWAP1 POP JUMP JUMPDEST PUSH2 0x197 DUP2 PUSH2 0x185 JUMP JUMPDEST DUP3 MSTORE POP POP JUMP JUMPDEST PUSH0 PUSH1 0x20 DUP3 ADD SWAP1 POP PUSH2 0x1B0 PUSH0 DUP4 ADD DUP5 PUSH2 0x18E JUMP JUMPDEST SWAP3 SWAP2 POP POP JUMP JUMPDEST PUSH0 DUP2 ISZERO ISZERO SWAP1 POP SWAP2 SWAP1 POP JUMP JUMPDEST PUSH2 0x1CA DUP2 PUSH2 0x1B6 JUMP JUMPDEST DUP3 MSTORE POP POP JUMP JUMPDEST PUSH0 PUSH1 0x20 DUP3 ADD SWAP1 POP PUSH2 0x1E3 PUSH0 DUP4 ADD DUP5 PUSH2 0x1C1 JUMP JUMPDEST SWAP3 SWAP2 POP POP JUMP JUMPDEST PUSH0 DUP2 SWAP1 POP SWAP2 SWAP1 POP JUMP JUMPDEST PUSH2 0x1FB DUP2 PUSH2 0x1E9 JUMP JUMPDEST DUP3 MSTORE POP POP JUMP JUMPDEST PUSH0 PUSH1 0x20 DUP3 ADD SWAP1 POP PUSH2 0x214 PUSH0 DUP4 ADD DUP5 PUSH2 0x1F2 JUMP JUMPDEST SWAP3 SWAP2 POP POP JUMP INVALID LOG2 PUSH5 0x6970667358 0x22 SLT KECCAK256 0x4E 0xBA PUSH29 0x9A6548FE4BA272E0C1D8CC8BD4218D715174741EBC7E7A8FD4299C6680 PUSH5 0x736F6C6343 STOP ADDMOD XOR STOP CALLER "
		},
		"gasEstimates": {
			"creation": {
				"codeDepositCost": "118400",
				"executionCost": "44374",
				"totalCost": "162774"
			},
			"external": {
				"arithmetic()": "165",
				"assignment()": "188",
				"bitwise()": "391",
				"condition()": "2514",
				"logical()": "330",
				"relational()": "353",
				"val()": "2425",
				"val1()": "2491"
			}
		},
		"methodIdentifiers": {
			"arithmetic()": "980a67fd",
			"assignment()": "71ca2ecf",
			"bitwise()": "856b16a4",
			"condition()": "c5031331",
			"logical()": "93daa367",
			"relational()": "46d46df2",
			"val()": "3c6bb436",
			"val1()": "c82fdf36"
		}
	},
	"abi": [
		{
			"inputs": [],
			"name": "arithmetic",
			"outputs": [],
			"stateMutability": "nonpayable",
			"type": "function"
		},
		{
			"inputs": [],
			"name": "assignment",
			"outputs": [],
			"stateMutability": "nonpayable",
			"type": "function"
		},
		{
			"inputs": [],
			"name": "bitwise",
			"outputs": [
				{
					"internalType": "int256",
					"name": "",
					"type": "int256"
				}
			],
			"stateMutability": "view",
			"type": "function"
		},
		{
			"inputs": [],
			"name": "condition",
			"outputs": [
				{
					"internalType": "bool",
					"name": "",
					"type": "bool"
				}
			],
			"stateMutability": "view",
			"type": "function"
		},
		{
			"inputs": [],
			"name": "logical",
			"outputs": [
				{
					"internalType": "bool",
					"name": "",
					"type": "bool"
				}
			],
			"stateMutability": "pure",
			"type": "function"
		},
		{
			"inputs": [],
			"name": "relational",
			"outputs": [
				{
					"internalType": "bool",
					"name": "",
					"type": "bool"
				}
			],
			"stateMutability": "view",
			"type": "function"
		},
		{
			"inputs": [],
			"name": "val",
			"outputs": [
				{
					"internalType": "uint256",
					"name": "",
					"type": "uint256"
				}
			],
			"stateMutability": "view",
			"type": "function"
		},
		{
			"inputs": [],
			"name": "val1",
			"outputs": [
				{
					"internalType": "uint256",
					"name": "",
					"type": "uint256"
				}
			],
			"stateMutability": "view",
			"type": "function"
		}
	]
}