{
	"Units.sol": {
		"Units": {
			"abi": [
				{
					"inputs": [],
					"name": "send",
					"outputs": [],
					"stateMutability": "payable",
					"type": "function"
				}
			],
			"devdoc": {
				"kind": "dev",
				"methods": {},
				"version": 1
			},
			"evm": {
				"assembly": "    /* \"Units.sol\":59:274  contract Units{... */\n  mstore(0x40, 0x80)\n  callvalue\n  dup1\n  iszero\n  tag_1\n  jumpi\n  0x00\n  dup1\n  revert\ntag_1:\n  pop\n  dataSize(sub_0)\n  dup1\n  dataOffset(sub_0)\n  0x00\n  codecopy\n  0x00\n  return\nstop\n\nsub_0: assembly {\n        /* \"Units.sol\":59:274  contract Units{... */\n      mstore(0x40, 0x80)\n      jumpi(tag_1, lt(calldatasize, 0x04))\n      shr(0xe0, calldataload(0x00))\n      dup1\n      0xb46300ec\n      eq\n      tag_2\n      jumpi\n    tag_1:\n      0x00\n      dup1\n      revert\n        /* \"Units.sol\":224:271  function send() public payable amount{... */\n    tag_2:\n      tag_3\n      tag_4\n      jump\t// in\n    tag_3:\n      stop\n    tag_4:\n        /* \"Units.sol\":188:197  2 seconds */\n      0x02\n        /* \"Units.sol\":171:186  block.timestamp */\n      timestamp\n        /* \"Units.sol\":171:197  block.timestamp< 2 seconds */\n      lt\n        /* \"Units.sol\":163:198  require(block.timestamp< 2 seconds) */\n      tag_6\n      jumpi\n      0x00\n      dup1\n      revert\n    tag_6:\n        /* \"Units.sol\":224:271  function send() public payable amount{... */\n      jump\t// out\n\n    auxdata: 0xa2646970667358221220d5e8fbc93373e2bec8c09f8a81b92f82d6d0ae5f29855941f897b40709815bd564736f6c63430008180033\n}\n",
				"bytecode": {
					"linkReferences": {},
					"object": "6080604052348015600e575f80fd5b50606a80601a5f395ff3fe608060405260043610601b575f3560e01c8063b46300ec14601f575b5f80fd5b60256027565b005b600242106032575f80fd5b56fea2646970667358221220d5e8fbc93373e2bec8c09f8a81b92f82d6d0ae5f29855941f897b40709815bd564736f6c63430008180033",
					"opcodes": "PUSH1 0x80 PUSH1 0x40 MSTORE CALLVALUE DUP1 ISZERO PUSH1 0xE JUMPI PUSH0 DUP1 REVERT JUMPDEST POP PUSH1 0x6A DUP1 PUSH1 0x1A PUSH0 CODECOPY PUSH0 RETURN INVALID PUSH1 0x80 PUSH1 0x40 MSTORE PUSH1 0x4 CALLDATASIZE LT PUSH1 0x1B JUMPI PUSH0 CALLDATALOAD PUSH1 0xE0 SHR DUP1 PUSH4 0xB46300EC EQ PUSH1 0x1F JUMPI JUMPDEST PUSH0 DUP1 REVERT JUMPDEST PUSH1 0x25 PUSH1 0x27 JUMP JUMPDEST STOP JUMPDEST PUSH1 0x2 TIMESTAMP LT PUSH1 0x32 JUMPI PUSH0 DUP1 REVERT JUMPDEST JUMP INVALID LOG2 PUSH5 0x6970667358 0x22 SLT KECCAK256 0xD5 0xE8 0xFB 0xC9 CALLER PUSH20 0xE2BEC8C09F8A81B92F82D6D0AE5F29855941F897 0xB4 SMOD MULMOD DUP2 JUMPDEST 0xD5 PUSH5 0x736F6C6343 STOP ADDMOD XOR STOP CALLER "
				},
				"gasEstimates": {
					"creation": {
						"codeDepositCost": "21200",
						"executionCost": "73",
						"totalCost": "21273"
					},
					"external": {
						"send()": "119"
					}
				},
				"methodIdentifiers": {
					"send()": "b46300ec"
				}
			},
			"storageLayout": {
				"storage": [],
				"types": null
			},
			"userdoc": {
				"kind": "user",
				"methods": {},
				"version": 1
			}
		}
	}
}